:100000000C945D000C9485000C9485000C94850084
:100010000C9485000C9485000C9485000C9485004C
:100020000C9485000C9485000C9485000C9485003C
:100030000C9485000C9485000C9485000C9485002C
:100040000C947B030C9485000C94EB030C94C50377
:100050000C9485000C9485000C9485000C9485000C
:100060000C9485000C94850000000008000201003B
:100070000003040700000000000000000000000072
:10008000250028002B0000000000240027002A0083
:10009000040404040404040402020202020203032E
:1000A0000303030301020408102040800102040836
:1000B00010200102040810201D0411241FBECFEFE0
:1000C000D8E0DEBFCDBF11E0A0E0B1E0E8E2FBE0A8
:1000D00002C005900D92AA32B107D9F721E0AAE239
:1000E000B1E001C01D92AB3EB207E1F710E0CDE5F3
:1000F000D0E004C02197FE010E948C05CC35D107C9
:10010000C9F70E946C040C9492050C94000090E0D6
:10011000FC01EC55FF4F249180579F4FFC018491C7
:10012000882399F090E0880F991FFC01EA57FF4F50
:10013000A591B491FC01E458FF4F859194918FB73C
:10014000F894EC91E22BEC938FBF089590E0FC01C2
:10015000E859FF4F2491FC01EC55FF4F3491FC010D
:10016000E057FF4FE491EE23C9F0222339F023300A
:1001700001F1A8F4213019F1223029F1F0E0EE0F5D
:10018000FF1FE458FF4FA591B4918FB7F894EC91FD
:10019000611126C030953E233C938FBF08952730D0
:1001A000A9F02830C9F0243049F7809180008F7D74
:1001B00003C0809180008F7780938000DFCF84B56B
:1001C0008F7784BDDBCF84B58F7DFBCF8091B0006E
:1001D0008F778093B000D2CF8091B0008F7DF9CF20
:1001E0003E2BDACF3FB7F8948091310190913201E4
:1001F000A0913301B091340126B5A89B05C02F3FD3
:1002000019F00196A11DB11D3FBFBA2FA92F982F3C
:100210008827BC01CD01620F711D811D911D42E037
:10022000660F771F881F991F4A95D1F70895AF92DF
:10023000BF92CF92DF92EF92FF920F931F93CF93D3
:10024000DF936C017B018B01040F151FEB015E0135
:10025000AE18BF08C017D10759F06991D601ED91CA
:10026000FC910190F081E02DC6010995892B79F769
:10027000C501DF91CF911F910F91FF90EF90DF901B
:10028000CF90BF90AF900895FC01538D448D252FE2
:1002900030E0842F90E0821B930B541710F0CF9620
:1002A000089501970895FC01918D828D981761F052
:1002B000A28DAE0FBF2FB11D5D968C91928D9F5F69
:1002C0009F73928F90E008958FEF9FEF0895FC0148
:1002D000918D828D981731F0828DE80FF11D858DFB
:1002E00090E008958FEF9FEF0895FC01918D228D8E
:1002F000892F90E0805C9F4F821B91098F73992713
:10030000089585E391E00E94750121E0892B09F4AD
:1003100020E0822F089580E090E0892B29F00E9450
:10032000810181110C9400000895FC01A48DA80F97
:10033000B92FB11DA35ABF4F2C91848D90E0019627
:100340008F739927848FA689B7892C93A089B18947
:100350008C91837080648C93938D848D981306C0E8
:100360000288F389E02D80818F7D80830895EF924C
:10037000FF920F931F93CF93DF93EC0181E0888F5F
:100380009B8D8C8D98131AC0E889F989808185FF2F
:1003900015C09FB7F894EE89FF896083E889F989D1
:1003A00080818370806480839FBF81E090E0DF91D3
:1003B000CF911F910F91FF90EF900895F62E0B8D26
:1003C00010E00F5F1F4F0F731127E02E8C8D8E11E1
:1003D0000CC00FB607FCFACFE889F989808185FF48
:1003E000F5CFCE010E949501F1CFEB8DEC0FFD2FE3
:1003F000F11DE35AFF4FF0829FB7F8940B8FEA8903
:10040000FB8980818062CFCFCF93DF93EC01888D11
:100410008823B9F0AA89BB89E889F9898C9185FD7F
:1004200003C0808186FD0DC00FB607FCF7CF8C910D
:1004300085FFF2CF808185FFEDCFCE010E9495012F
:10044000E9CFDF91CF910895089590E080E008957D
:10045000FB0101900020E9F73197AF01461B570BD4
:10046000DC01ED91FC910280F381E02D0994CF93A2
:10047000DF93EC0160E08E810E94A60061E08E8136
:100480000E94A60060E08E810E94A6008BE891E0A9
:100490000197F1F7DF91CF910895CF92DF92EF921C
:1004A000FF920F931F93CF93DF936C017C0187E042
:1004B000E80EF11CD0E0C0E0062F10E0B8010C2ED1
:1004C00002C0759567950A94E2F76170F701819112
:1004D0007F010E94A6002196C430D10579F7C6019C
:1004E000DF91CF911F910F91FF90EF90DF90CF9010
:1004F0000C943702CF92DF92EF92FF920F931F93EB
:10050000CF93DF93EC01F62E642F8C810E94A6001E
:100510008D818F3F19F060E00E94A6000F2D10E042
:100520008F8584FF25C06E0187E0C80ED11CF12C99
:10053000E12CB8010E2C02C0759567950A94E2F77C
:100540006170F60181916F010E94A600FFEFEF1A22
:10055000FF0A88E0E816F10461F7CE01DF91CF9140
:100560001F910F91FF90EF90DF90CF900C94370286
:10057000B80184E0759567958A95E1F7CE010E94F0
:100580004D026F2DCE01DF91CF911F910F91FF9002
:10059000EF90DF90CF900C944D0240E0682F83EDF8
:1005A00091E00C947A02CF93DF93823029F49091FA
:1005B000E20198609093E2018093E6011092E701D6
:1005C00080E48093E80180E18093E90180E58093F5
:1005D000EA018091D7010E9487008091D8018F3F66
:1005E00011F00E9487008091D9010E948700C3ED1D
:1005F000D1E09E01235D31408091E20184FD0AC07B
:1006000084E090E02196281739073CF48E810E94FF
:100610008700EFCF88E090E0F5CF8BE39DE0019776
:10062000F1F760E08091D7010E94A60060E0809120
:10063000D9010E94A6008091D8018F3F19F060E097
:100640000E94A6008091E20184FD39C063E083ED41
:1006500091E00E944D02CBE4D6E4CE010197F1F780
:1006600063E083ED91E00E944D022197F1F763E092
:1006700083ED91E00E944D0283E592E00197F1F74E
:1006800062E083ED91E00E944D028091E201806280
:100690000E94CD0284E08093E3018CE00E94CD02B1
:1006A00081E00E94CD028BE39FE10197F1F782E0A8
:1006B0008093E40186E0DF91CF910C94CD028062BB
:1006C0000E94CD028BE496E40197F1F78091E2015C
:1006D00080620E94CD0283E592E00197F1F780915C
:1006E000E20180620E94CD02D0CF41E00E947A02F6
:1006F00081E090E008951F920F920FB60F9211249F
:100700002F933F938F939F93AF93BF9380912D012E
:1007100090912E01A0912F01B091300130912C01C8
:1007200023E0230F2D3758F50196A11DB11D20930D
:100730002C0180932D0190932E01A0932F01B09353
:1007400030018091310190913201A0913301B0913B
:1007500034010196A11DB11D8093310190933201A6
:10076000A0933301B0933401BF91AF919F918F91CA
:100770003F912F910F900FBE0F901F90189526E874
:10078000230F0296A11DB11DD2CF1F920F920FB65B
:100790000F9211242F933F934F935F936F937F9307
:1007A0008F939F93AF93BF93EF93FF9385E391E074
:1007B0000E949501FF91EF91BF91AF919F918F9111
:1007C0007F916F915F914F913F912F910F900FBE4D
:1007D0000F901F9018951F920F920FB60F92112431
:1007E0002F938F939F93EF93FF93E0914501F091A7
:1007F00046018081E0914B01F0914C0182FD1BC0CC
:10080000908180914E018F5F8F7320914F018217ED
:1008100041F0E0914E01F0E0EB5CFE4F958F80934C
:100820004E01FF91EF919F918F912F910F900FBEED
:100830000F901F9018958081F4CFE5E3F1E01382CB
:10084000128288EE93E0A0E0B0E084839583A683D3
:10085000B78384E091E09183808385EC90E0958775
:10086000848784EC90E09787868780EC90E0918B7A
:10087000808B81EC90E0938B828B82EC90E0958B67
:10088000848B86EC90E0978B868B118E128E138E64
:10089000148EE3EDF1E01382128286E191E0918300
:1008A000808385E084838FEF858387E0868389E07A
:1008B00087838AE080878BE081878CE0828713863C
:1008C000148615861686178681E00E94D3028EE173
:1008D00091E08093D2010895789484B5826084BDBC
:1008E00084B5816084BD85B5826085BD85B5816034
:1008F00085BD80916E00816080936E0010928100B2
:10090000809181008260809381008091810081606C
:10091000809381008091800081608093800080912D
:10092000B10084608093B1008091B00081608093B9
:10093000B00080917A00846080937A0080917A0080
:10094000826080937A0080917A00816080937A003F
:1009500080917A00806880937A001092C100E091C3
:100960004501F091460182E08083E0914101F091E0
:1009700042011082E0914301F09144018FEC8083A9
:1009800010924D01E0914901F0914A0186E0808387
:10099000E0914701F0914801808180618083E0917E
:1009A0004701F0914801808188608083E091470190
:1009B000F0914801808180688083E0914701F09147
:1009C000480180818F7D808382E00E94D30281E094
:1009D0000E94CD028BE39FE10197F1F78091E40142
:1009E0008E7F8093E40184600E94CD02C0E0D0E05D
:1009F00080912A0190912B0103970CF059C0E1E0FE
:100A00008091E6018111E0E0E195F0E0ED52FE4FCA
:100A1000848980680E94CD0260E271E083ED91E0FC
:100A20000E94280266E271E083ED91E00E942802B4
:100A300085E391E00E947501181619068CF485E390
:100A400091E00E9453018093D201682F85E391E0E9
:100A50000E94B70166E271E085E391E00E942802FE
:100A600080912A01E091E601E23000F5E150F0E0EA
:100A7000ED52FE4F9489890F80680E94CD0241E0BB
:100A80006091D20183ED91E00E947A0266E271E00A
:100A900083ED91E00E94280280912A0190912B0120
:100AA000019690932B0180932A01A2CFE1E0DFCF42
:100AB00010922B0110922A010E94F2004B015C015E
:100AC00080EDC82E87E0D82EE12CF12C0E94F20098
:100AD000681979098A099B09683E73408105910567
:100AE000A8F321E0C21AD108E108F10888EE880EC7
:100AF00083E0981EA11CB11CC114D104E104F104CF
:100B000029F7209709F474CF0E948101882309F402
:100B10006FCF0E9400006CCFEE0FFF1F0590F49185
:080B2000E02D0994F894FFCFC9
:100B280000000000B70117014401040275015301D8
:100B38006701000000007503170125022402200048
:0A0B48004C45545241000D0A000014
:00000001FF
