:100000000C9462000C948A000C948A000C948A0070
:100010000C948A000C948A000C948A000C948A0038
:100020000C948A000C948A000C948A000C948A0028
:100030000C948A000C948A000C948A000C948A0018
:100040000C94F0010C948A000C9460020C943A0217
:100050000C948A000C948A000C948A000C948A00F8
:100060000C948A000C948A000000000025002800EF
:100070002B0000000000240027002A0000000000E0
:1000800023002600290004040404040404040202DA
:100090000202020203030303030301020408102007
:1000A0004080010204081020010204081020000012
:1000B0000008000201000003040700000000000027
:1000C00000006A0811241FBECFEFD8E0DEBFCDBF0D
:1000D00011E0A0E0B1E0EEE3F1E102C005900D9285
:1000E000AE34B107D9F722E0AEE4B1E001C01D9211
:1000F000A230B207E1F710E0C2E6D0E004C02197D9
:10010000FE010E949708C136D107C9F70E949202EA
:100110000C949D080C9400008E3008F08E5087706F
:10012000806480937C0080917A00806480937A0060
:1001300080917A0086FDFCCF8091780090917900C3
:1001400008953FB7F8948091610190916201A09168
:100150006301B091640126B5A89B05C02F3F19F03B
:100160000196A11DB11D3FBFBA2FA92F982F882737
:10017000BC01CD01620F711D811D911D42E0660F12
:10018000771F881F991F4A95D1F70895AF92BF92A4
:10019000CF92DF92EF92FF920F931F93CF93DF9353
:1001A0006C017B018B01040F151FEB015E01AE1882
:1001B000BF08C017D10759F06991D601ED91FC91A4
:1001C0000190F081E02DC6010995892B79F7C501D1
:1001D000DF91CF911F910F91FF90EF90DF90CF9023
:1001E000BF90AF900895FC01538D448D252F30E0D2
:1001F000842F90E0821B930B541710F0CF96089534
:1002000001970895FC01918D828D981761F0A28D60
:10021000AE0FBF2FB11D5D968C91928D9F5F9F7326
:10022000928F90E008958FEF9FEF0895FC01918DDC
:10023000828D981731F0828DE80FF11D858D90E049
:1002400008958FEF9FEF0895FC01918D228D892FE6
:1002500090E0805C9F4F821B91098F7399270895CE
:1002600085E691E00E94240121E0892B09F420E039
:10027000822F089580E090E0892B29F00E943001C0
:1002800081110C9400000895FC01A48DA80FB92FD2
:10029000B11DA35ABF4F2C91848D90E001968F73AE
:1002A0009927848FA689B7892C93A089B1898C91CD
:1002B000837080648C93938D848D981306C002881C
:1002C000F389E02D80818F7D80830895EF92FF92E6
:1002D0000F931F93CF93DF93EC0181E0888F9B8D69
:1002E0008C8D98131AC0E889F989808185FF15C023
:1002F0009FB7F894EE89FF896083E889F989808146
:100300008370806480839FBF81E090E0DF91CF9114
:100310001F910F91FF90EF900895F62E0B8D10E036
:100320000F5F1F4F0F731127E02E8C8D8E110CC0A5
:100330000FB607FCFACFE889F989808185FFF5CFF0
:10034000CE010E944401F1CFEB8DEC0FFD2FF11D8A
:10035000E35AFF4FF0829FB7F8940B8FEA89FB892D
:1003600080818062CFCFCF93DF93EC01888D88238B
:10037000B9F0AA89BB89E889F9898C9185FD03C008
:10038000808186FD0DC00FB607FCF7CF8C9185FFED
:10039000F2CF808185FFEDCFCE010E944401E9CFED
:1003A000DF91CF910895CF93DF93FC01019000205E
:1003B000E9F73197AF01481B590BBC0185E691E085
:1003C0000E94C600EC0142E050E062E171E085E687
:1003D00091E00E94C6008C0F9D1FDF91CF91089580
:1003E0001F920F920FB60F9211242F933F938F936A
:1003F0009F93AF93BF9380915D0190915E01A09117
:100400005F01B091600130915C0123E0230F2D3733
:1004100058F50196A11DB11D20935C0180935D01EB
:1004200090935E01A0935F01B093600180916101A0
:1004300090916201A0916301B09164010196A11DA8
:10044000B11D8093610190936201A0936301B09309
:100450006401BF91AF919F918F913F912F910F9028
:100460000FBE0F901F90189526E8230F0296A11D2E
:10047000B11DD2CF1F920F920FB60F9211242F935E
:100480003F934F935F936F937F938F939F93AF931C
:10049000BF93EF93FF9385E691E00E944401FF91A3
:1004A000EF91BF91AF919F918F917F916F915F91EC
:1004B0004F913F912F910F900FBE0F901F90189565
:1004C0001F920F920FB60F9211242F938F939F9329
:1004D000EF93FF93E0917501F09176018081E091B7
:1004E0007B01F0917C0182FD1BC0908180917E0197
:1004F0008F5F8F7320917F01821741F0E0917E0121
:10050000F0E0EB59FE4F958F80937E01FF91EF91C4
:100510009F918F912F910F900FBE0F901F90189564
:100520008081F4CFCF93DF93CDB7DEB766970FB658
:10053000F894DEBF0FBECDBF789484B5826084BDD1
:1005400084B5816084BD85B5826085BD85B58160D7
:1005500085BD80916E00816080936E001092810055
:100560008091810082608093810080918100816010
:1005700080938100809180008160809380008091D1
:10058000B10084608093B1008091B000816080935D
:10059000B00080917A00846080937A0080917A0024
:1005A000826080937A0080917A00816080937A00E3
:1005B00080917A00806880937A001092C100E09167
:1005C0007501F091760182E08083E0917101F091F4
:1005D00072011082E0917301F09174018FEC8083BD
:1005E00010927D01E0917901F0917A0186E080839B
:1005F000E0917701F0917801808180618083E091C2
:100600007701F0917801808188608083E0917701A3
:10061000F0917801808180688083E0917701F0918A
:10062000780180818F7D8083ECE9F0E02491E8E817
:10063000F0E084918823E1F090E0880F991FFC019D
:10064000EE58FF4FA591B491FC01E859FF4F8591F9
:1006500094919A8B898B3FB7F8949C91822F8095C7
:1006600098239C93E989FA899081892380833FBFED
:100670008EE00E948C005C0190935B0180935A0194
:100680008FE00E948C007C01909359018093580167
:1006900080E10E948C006C01909357018093560179
:1006A00081E10E948C009E8B8D8B909355018093ED
:1006B000540182E10E948C008C019093530180933D
:1006C000520183E10E948C009A8B898B9093510197
:1006D0008093500184E10E948C009C8B8B8B9093C3
:1006E0004F0180934E0185E10E948C00F6E4AF1625
:1006F000F1E0BF0691F52AE6E21621E0F20681F468
:1007000030E7C31631E0D30659F4ED89FE89E536AA
:10071000F14031F422242394003731E0130709F02B
:10072000212CF7E7AF16F1E0BF0609F069C029E90F
:10073000E21621E0F20679F434E8C31631E0D3067C
:1007400051F4ED89FE89ED37F14029F40A3831E0A2
:10075000130709F4FDC31B8263C441E4A41641E0FE
:10076000B406B9F4E0E3EE16E1E0FE06C9F6F0E304
:10077000CF16F1E0DF06A1F62D893E892C323140FB
:1007800079F60C32E1E01E0759F6E1E0E983212C0D
:1007900038C0F4E3AF16F1E0BF06B1F425E6E21687
:1007A00021E0F20679F43AE5C31631E0D30651F4BC
:1007B000ED89FE89E435F14029F40A3531E013076B
:1007C00009F426C41982E3CF4FE4A41641E0B4062D
:1007D00009F0A6CFE0E3EE16E1E0FE0679F4FFE5CE
:1007E000CF16F1E0DF0651F42D893E8926343140E1
:1007F00029F40634E1E01E0709F40FC41A820AC482
:1008000019824CE2A41641E0B406B1F4E1E4EE161C
:10081000E1E0FE0679F4F0E3CF16F1E0DF0651F4F3
:100820002D893E892C32314029F40C32E1E01E073B
:1008300009F4FAC31C828FC31A82F0E3AF16F1E009
:10084000BF06B1F420E3E21621E0F20679F43AE4BF
:10085000C31631E0D30651F4ED89FE89E634F14048
:1008600029F4063431E0130709F406C41D82DFC3FE
:100870001C821B824CE3A41641E0B40609F002C4BA
:10088000E0E3EE16E1E0FE0631F5F0E3CF16F1E02D
:10089000DF0609F0F9C32D893E892435314009F07E
:1008A000F3C30A35E1E01E0709F0EEC34424439484
:1008B000E0E3CE16E1E0DE0659F42D893E892435C9
:1008C000314031F4332433940A35E1E01E0709F056
:1008D000312C912CFAC3FDE7EF16F1E0FF0609F089
:1008E000D3C32AE5C21621E0D20609F0CDC3ED89B3
:1008F000FE89E435F14009F0C7C30C3331E013073A
:1009000009F0C2C399249394552453941F861D82E1
:1009100046E4A41641E0B40609F069C3E0E3EE162C
:10092000E1E0FE0609F0A4C3F0E3CF16F1E0DF0634
:1009300009F09EC32D893E892C32314009F05AC3FB
:100940000A38E1E01E0709F093C3812C612C77245B
:1009500073941E82312C412CF0E3AF16F1E0BF06F8
:1009600099F420E3E21621E0F20671F434E5C316AF
:1009700031E0D30649F4ED89FE89EF34F14021F4EA
:100980000F3531E0130701F1188616C325E6E2168C
:1009900021E0F20681F43FE5C31631E0D30659F4B5
:1009A000ED89FE89EA35F14031F4882483940F35CE
:1009B00031E0130709F0812C612C712CCDCF812CF3
:1009C00066246394712CC5CF41E049871886EAE616
:1009D000AE16E1E0BE0699F4FDE7EF16F1E0FF0682
:1009E00071F420E7C21621E0D20649F4ED89FE89B0
:1009F000EA36F14021F4003731E01307F9F01A86A6
:100A000003C041E04A871986E4E3AE16E1E0BE0682
:100A100099F4F1E4EF16F1E0FF0671F420E3C21659
:100A200021E0D20649F4ED89FE89EC32F14021F44F
:100A30000C3231E01307F9F01B8603C041E04B870D
:100A40001A86ECE3AE16E1E0BE0699F4FCE2EF167E
:100A5000F1E0FF0671F42CE2C21621E0D20649F45F
:100A6000ED89FE89E435F14021F40A3531E01307C0
:100A7000D1F11C8603C041E04C871B86188AECE349
:100A8000AE16E1E0BE0699F52CE2E21621E0F20690
:100A900071F53CE2C31631E0D30649F5ED89FE89D4
:100AA000E435F14021F50A3531E0130701F5F1E0B5
:100AB000FF832CE3A21621E0B20699F43CE3E3168F
:100AC00031E0F30671F441E4C41641E0D40649F480
:100AD000ED89FE89EC33F14021F40C3331E013074A
:100AE000F1F11D8621C0F1E0F88B1C86CDCF46E4E4
:100AF000A41641E0B40699F4ECE2EE16E1E0FE063D
:100B000071F4F0E3CF16F1E0DF0649F42D893E8958
:100B10002C32314021F40A35E1E01E0711F01F822A
:100B2000C8CF41E04D871F82ECE2AE16E1E0BE0681
:100B3000A1F4F4E5EF16F1E0FF0679F42AE4C21619
:100B400021E0D20651F4ED89FE89E634F14029F422
:100B50000C3231E0130709F4B9C01E8603C041E02E
:100B60004E871D86EFE4AE16E1E0BE0609F0B2C086
:100B7000F0E3EF16F1E0FF0609F0ACC02FE5C21676
:100B800021E0D20609F0A6C0ED89FE89E634F140E5
:100B900009F0A0C0FF24F3940634114009F0F12CB1
:100BA00010E029893A892E5231402934310540F428
:100BB00001E02B893C892F5F31092835310508F088
:100BC00000E029893A892B5A31402C32310548F40A
:100BD0002B893C8926533140EE24E3942636310597
:100BE00008F0E12C6C0140E6C41A41E0D40AE0EBC5
:100BF000F0E09491ECE9F0E08491E8E8F0E02491F1
:100C0000222309F48BC0992359F0933009F46FC063
:100C100008F062C0913009F470C0923009F471C0DC
:100C2000E22FF0E0EE0FFF1FE458FF4FA591B491C3
:100C30009C91892321E090E009F420E0298B9A8B94
:100C4000222021F085E191E00E94D301F981FF2368
:100C500021F087E191E00E94D3012A81222351F003
:100C60008BE491E030E4C316D10410F089E191E007
:100C70000E94D3014B81442321F08BE191E00E943B
:100C8000D3018C81882321F08DE191E00E94D30172
:100C90009D81992321F08FE191E00E94D301EF859E
:100CA000EE2321F081E291E00E94D3014420C9F1BA
:100CB000F0E4CF16D10408F043C1011104C083E26F
:100CC00091E00E94D3019920B9F12BC111E01E8659
:100CD000F12C67CF10E0FCCF9730B1F09830D1F015
:100CE000943009F09DCF909180009F7D03C090913A
:100CF00080009F779093800093CF94B59F7794BDA9
:100D00008FCF94B59F7DFBCF9091B0009F7790934C
:100D1000B00086CF9091B0009F7DF9CF1A8A198AD2
:100D20008FCF552009F4F5C020E4C216D10458F243
:100D300085E291E00E94D301332051F0002341F07D
:100D400040E4C416D10420F089E291E00E94D3016E
:100D50008E81882321F08BE291E00E94D3017720DD
:100D600021F08DE291E00E94D301662021F08FE214
:100D700091E00E94D301882021F081E391E00E945C
:100D8000D3019885992321F083E391E00E94D30158
:100D9000E985EE2321F085E391E00E94D301FA85F5
:100DA000FF2321F087E391E00E94D3012B852223CA
:100DB00021F089E391E00E94D3013C85332321F0A7
:100DC0008BE391E00E94D3014889442309F4ACC02D
:100DD00089899A89892B09F0B6C08DE391E00E9438
:100DE000D301FD85FF2321F081E491E00E94D3012E
:100DF0002E85222331F0002321F083E491E00E942C
:100E0000D301112321F085E491E00E94D301FF205A
:100E100031F0EE2021F087E491E00E94D30121100F
:100E200046C03981311143C04A81411140C08B8194
:100E300081113DC09C8191113AC0ED81E11137C013
:100E4000FF85F11134C0411032C0511030C09110F3
:100E50002EC031102CC02E81211129C0711027C045
:100E6000611025C0811023C03885311120C049850B
:100E700041111DC08A8581111AC09B85911117C02F
:100E8000EC85E11114C0F889F11111C02F812111F5
:100E90000EC03D8531110BC04E85411108C01111A6
:100EA00006C0F11004C089E491E00E94D3010E94C1
:100EB000A1004B015C0180EDC82E87E0D82EE12C0B
:100EC000F12C0E94A100681979098A099B09683EE2
:100ED000734081059105A8F381E0C81AD108E108A3
:100EE000F10898EE890E93E0991EA11CB11CC11463
:100EF000D104E104F10429F720E030E0232B09F4C8
:100F0000B7CB0E943001882309F4B2CB0E940000C5
:100F1000AFCB992009F410CF30E4C316D10408F008
:100F20000BCF87E291E006CF9F81992309F459CF37
:100F3000E989FA89EF2B09F454CF8FE391E04FCF81
:100F40005110F6CEF9CE3F81332309F44ACFF5CFC5
:100F500041E04C8319821B821A828CCCE1E0EE8343
:100F6000312C912C512C412CF4E3AF16F1E0BF064B
:100F700009F40CCD46E4A41641E0B40609F01BCDFB
:100F8000E0E3EE16E1E0FE0609F015CDF1E4CF1640
:100F9000F1E0DF0609F00FCD2D893E89243531407F
:100FA00009F009CD0A35E1E01E0709F004CD41E062
:100FB0004887812C612C712CECE3AE16E1E0BE0673
:100FC000A1F4FCE2EF16F1E0FF0679F420E3C2168B
:100FD00021E0D20651F4ED89FE89E435F14029F48F
:100FE0000A3531E0130709F40CCD1986F0CC1E82C6
:100FF000312CB9CF2D893E892D37314029F40A385B
:10100000F1E01F0709F4DBCC1E82312C412CB8CF54
:10101000F1E0FA831982212C10CC21E02B83212CC2
:101020001C821A82198226CC31E03D831A821F86E7
:101030001C821B82912C512CFCE2AF16F1E0BF0602
:1010400009F066CC24E3E21621E0F20679F43AE4F2
:10105000C31631E0D30651F4ED89FE89E634F14040
:1010600029F4063431E0130709F478CF912C512C80
:101070001E82312C412C7ECF41E04F871C821B8287
:101080001D82D8CF1F86FCCFEDE7EE16E1E0FE060D
:1010900071F44AE5C41641E0D40649F4ED89FE89AD
:1010A000E435F14021F40C3331E0130751F0412CC9
:1010B00040E3E41641E0F40609F4FACB912C512CFC
:1010C00025CC312C99249394412C1E82512C1F86BF
:1010D0001D824ACFE5E6F1E01382128288EE93E0AA
:1010E000A0E0B0E084839583A683B78384E091E099
:1010F0009183808385EC90E09587848784EC90E0F1
:101100009787868780EC90E0918B808B81EC90E0D4
:10111000938B828B82EC90E0958B848B86EC90E0B5
:10112000978B868B118E128E138E148E0895EE0F70
:0E113000FF1F0590F491E02D0994F894FFCF75
:10113E00000000006601C600F300B30124010201A5
:10114E0016010D0A004100420043004400450046CE
:10115E00004700480049004A004B004C004D004E2D
:10116E00004F0050005100520053005400550056DD
:0E117E00005700580059005A003F00C3870078
:00000001FF
